{
  "_format": "hh-sol-artifact-1",
  "contractName": "Transactions",
  "sourceName": "contracts/Transactions.sol",
  "abi": [
    {
      "anonymous": false,
      "inputs": [
        {
          "indexed": false,
          "internalType": "address",
          "name": "sender",
          "type": "address"
        },
        {
          "indexed": false,
          "internalType": "address",
          "name": "receiver",
          "type": "address"
        },
        {
          "indexed": false,
          "internalType": "uint256",
          "name": "amount",
          "type": "uint256"
        },
        {
          "indexed": false,
          "internalType": "string",
          "name": "message",
          "type": "string"
        },
        {
          "indexed": false,
          "internalType": "uint256",
          "name": "timestamp",
          "type": "uint256"
        },
        {
          "indexed": false,
          "internalType": "string",
          "name": "keyword",
          "type": "string"
        }
      ],
      "name": "Transfer",
      "type": "event"
    },
    {
      "inputs": [
        {
          "internalType": "address payable",
          "name": "receiver",
          "type": "address"
        },
        {
          "internalType": "uint256",
          "name": "amount",
          "type": "uint256"
        },
        {
          "internalType": "string",
          "name": "message",
          "type": "string"
        },
        {
          "internalType": "string",
          "name": "keyword",
          "type": "string"
        }
      ],
      "name": "addTransaction",
      "outputs": [],
      "stateMutability": "nonpayable",
      "type": "function"
    },
    {
      "inputs": [],
      "name": "getAllTransactions",
      "outputs": [
        {
          "components": [
            {
              "internalType": "address",
              "name": "sender",
              "type": "address"
            },
            {
              "internalType": "address",
              "name": "receiver",
              "type": "address"
            },
            {
              "internalType": "uint256",
              "name": "amount",
              "type": "uint256"
            },
            {
              "internalType": "string",
              "name": "message",
              "type": "string"
            },
            {
              "internalType": "uint256",
              "name": "timestamp",
              "type": "uint256"
            },
            {
              "internalType": "string",
              "name": "keyword",
              "type": "string"
            }
          ],
          "internalType": "struct Transactions.TransferStruct[]",
          "name": "",
          "type": "tuple[]"
        }
      ],
      "stateMutability": "view",
      "type": "function"
    },
    {
      "inputs": [],
      "name": "getTransactionsCount",
      "outputs": [
        {
          "internalType": "uint256",
          "name": "",
          "type": "uint256"
        }
      ],
      "stateMutability": "view",
      "type": "function"
    }
  ],
  "bytecode": "0x608060405234801561001057600080fd5b506105e9806100206000396000f3fe608060405234801561001057600080fd5b50600436106100415760003560e01c806327506f5314610046578063578cb8f91461005e5780636d1b6bb11461006f575b600080fd5b6060604051610055919061030a565b60405180910390f35b600054604051908152602001610055565b61008261007d36600461046e565b610084565b005b600160008082825461009691906104fa565b90915550506040805160c0810182523381526001600160a01b0386811660208084019182529383018781526060840187815242608086015260a08501879052600180548082018255600091909152855160069091027fb10e2d527612073b26eecdfd717e6a320cf44b4afac2b0732d9fcbe2b7fa0cf6810180549287166001600160a01b031993841617815594517fb10e2d527612073b26eecdfd717e6a320cf44b4afac2b0732d9fcbe2b7fa0cf7820180549190971692169190911790945590517fb10e2d527612073b26eecdfd717e6a320cf44b4afac2b0732d9fcbe2b7fa0cf8840155518051939491936101b4937fb10e2d527612073b26eecdfd717e6a320cf44b4afac2b0732d9fcbe2b7fa0cf901929190910190610224565b506080820151600482015560a082015180516101da916005840191602090910190610224565b5050507f416cfa4330a4565f45c2fd2dd4826a83a37443aba2ce6f79477c7355afac35fa33858585428660405161021696959493929190610520565b60405180910390a150505050565b82805461023090610578565b90600052602060002090601f0160209004810192826102525760008555610298565b82601f1061026b57805160ff1916838001178555610298565b82800160010185558215610298579182015b8281111561029857825182559160200191906001019061027d565b506102a49291506102a8565b5090565b5b808211156102a457600081556001016102a9565b6000815180845260005b818110156102e3576020818501810151868301820152016102c7565b818111156102f5576000602083870101525b50601f01601f19169290920160200192915050565b60006020808301818452808551808352604092508286019150828160051b87010184880160005b838110156103bd57888303603f19018552815180516001600160a01b039081168552888201511688850152868101518785015260608082015160c08287018190529190610380838801826102bd565b92505050608080830151818701525060a080830151925085820381870152506103a981836102bd565b968901969450505090860190600101610331565b509098975050505050505050565b634e487b7160e01b600052604160045260246000fd5b600082601f8301126103f257600080fd5b813567ffffffffffffffff8082111561040d5761040d6103cb565b604051601f8301601f19908116603f01168101908282118183101715610435576104356103cb565b8160405283815286602085880101111561044e57600080fd5b836020870160208301376000602085830101528094505050505092915050565b6000806000806080858703121561048457600080fd5b84356001600160a01b038116811461049b57600080fd5b935060208501359250604085013567ffffffffffffffff808211156104bf57600080fd5b6104cb888389016103e1565b935060608701359150808211156104e157600080fd5b506104ee878288016103e1565b91505092959194509250565b6000821982111561051b57634e487b7160e01b600052601160045260246000fd5b500190565b6001600160a01b038781168252861660208201526040810185905260c060608201819052600090610553908301866102bd565b84608084015282810360a084015261056b81856102bd565b9998505050505050505050565b600181811c9082168061058c57607f821691505b602082108114156105ad57634e487b7160e01b600052602260045260246000fd5b5091905056fea2646970667358221220ebcba8555bb139c752545150798b098c351344983a17692611bee61b626c231d64736f6c63430008090033",
  "linkReferences": {},
  "deployedLinkReferences": {}
}